:060000000A128A110E280D
:10000800FE00030EF5000408F6000A08F7000A12BD
:100018008A118C2A0A128A11FE2BCA013708360661
:100028000319080041220A128A11CB003C3A031D29
:100038002228B401B40AB201B3014C28340B372882
:100048004B083A3A031D2A2802304028053032026C
:10005800031835283208203E84004B088000B20A75
:100068004C28B4014C283408023A031D4C284B088C
:100078003E3A031D42280330B4004C2806303302B0
:10008800031835283308383E84004B088000B30A2B
:100098003408033A031D0800013000220A128A11AD
:1000A800003A0319C428CC014C08383E8400831355
:1000B8000008413A031D6728BE01BE0A4C0ACE213A
:1000C8000A128A11B3284C08383E840000084B3ABB
:1000D800031D7428BE014C0ACE210A128A11B328C6
:1000E8004C08383E84000008303A031D7F2832301F
:1000F800C400C501AF284C08383E840072220A1299
:100108008A11031D892801304702031CB328831272
:1001180086220A128A1172220A128A11031D96284F
:100128000A3047020318B328831286220A128A115A
:100138000008BE00D030BF01BE070318BF0AFF3059
:10014800BF070530C000C1014E220A128A113F08BC
:10015800C5003E08C4004C0A97210A128A1183126E
:1001680003130530CC0A4C02031C58283C307C2170
:100178000A128A114F307C210A128A114B30032946
:10018800023000220A128A11003A0319132933088F
:10019800053A031DF228E830BE00390889210A1201
:1001A8008A11C7006430BE003A0889210A128A11F0
:1001B8004707C8000A30BE003B0889210A128A1185
:1001C8004807C9003C084907B03ECA00C400C50139
:1001D8003808D03E97210A128A11BA283C307C216F
:1001E8000A128A1148307C210A128A1141307C2176
:1001F8000A128A1154307C210A128A1141307C215A
:100208000A128A113E307C210A128A113D220A12F2
:100218008A11B8308312BE000B30BF006722B401C8
:10022800080083120313B108031D2429060837396F
:100238007A060319080005306D22B101B10A0800D9
:10024800310B0800F01F0800F013060837397A064A
:10025800031979290608FA003730FA053C307C2161
:100268000A128A1144307C210A128A1155307C21E5
:100278000A128A1152307C210A128A1155307C21C7
:100288000A128A114D307C210A128A113A307C21D7
:100298000A128A1106080139303E7C210A128A1195
:1002A800060C0139303E7C210A128A11060CBF0067
:1002B8003F0C0139303E7C210A128A11060E0139A1
:1002C800303E7C210A128A11060EBF003F0C01390C
:1002D800303E7C210A128A1130307C210A128A11A0
:1002E8003E307C210A128A113D228312B101080096
:1002F800BE007C08903E84003E0883178000FC0AFC
:100308007C083C3A0319FC010800C000BF013E0804
:100318004018BF070310BE0D0310C00CC008031D12
:100328008B293F080800C600BC2988144508A60088
:100338004408A5007014080008154508A8004408DA
:10034800A700F014080088154508AA004408A90069
:100358007015080007164508AC004408AB00F015F6
:10036800080087164508AE004408AD00701608005E
:100378004608013A03199929033A0319A029013AB1
:100388000319A729073A0319AE29013A0319B52910
:10039800CD290800BF00EE293E08031D8814031963
:1003A800881008003E08031D0815031908110800E5
:1003B8003E08031D88150319881108003E08031D0F
:1003C80007160319071208003E08031D87160319AC
:1003D800871208003F08013A0319D029033A031984
:1003E800D629013A0319DC29073A0319E229013A07
:1003F8000319E829FF290800BF00C101C001C00A8C
:10040800332A0430C100C2014108420203183B2AC2
:100418004208073E84000A128A1136240A128A11F9
:100428007E220A128A1103191B2AC0013B2AC20A1A
:10043800082A0530C100C2014108420203183B2ABC
:100448004208013E84000A128A1136240A128A11CF
:100458007E220A128A11031D192AC20A202A3F087D
:10046800013A0319052A033A03191D2A192A4008D3
:1004780008000C1283160C1608003608A03E8400EB
:1004880083130008BE00B60A36083C3A0319B601C1
:100498003E080800C201C3013E1C582A4008C20792
:1004A8000318C30A4108C3070310C00DC10D031088
:1004B800BF0CBE0C3F083E04031D502A4308BF0072
:1004C8004208BE0008003F08B0003E08AF00F01622
:1004D8000800BE00F9007017F01308000008D03EAD
:1004E800C700FF3003180030C800803AFF00803092
:1004F8007F020800BE004208203E840083130008E3
:100508003E06080003134C08383E84008313080095
:100518008B1A0B1DFC2ABE30831203138100F90BC2
:10052800992A701F992AF0177013CD0BFA2A0C30EC
:10053800CD000130A5020030031CA603A602260840
:1005480025040319701CAA2A881070100130A7020C
:100558000030031CA803A802280827040319F01C6C
:10056800B72A0811F0100130A9020030031CAA03B1
:10057800AA022A0829040319701DC42A88117011B7
:100588000130AB020030031CAC03AC022C082B0476
:100598000319F01DD12A0712F0110130AD02003005
:1005A800031CAE03AE022E082D040319701EDE2AAA
:1005B800871270120130AF020030031CB003B00282
:1005C80030082F040319F01EF02A55230A128A1145
:1005D800B830AF000B30B000CF0BFA2A0530CF008F
:1005E800CE0BFA2A0230CE00013088060B11292BD7
:1005F800831603138C1E152B83128C1E152B981C27
:10060800072B1812181618191A088C1A0F2B3223D0
:100618000A128A11092B1A08F8003B230A128A11B8
:10062800292B83160C1E292B83120C1E292B7B08C1
:100638007C060319252B48230A128A11F800990011
:10064800292B83160C1283120C1277088A0076085D
:100658008400750E8300FE0E7E0E090083120313BC
:10066800981C382B1812181618191A080800F100C7
:100678003708A03E8400710883138000B70A370842
:100688003C3A0319B70108007B08903E84008317A1
:100698000008F100FB0A7B083C3A0319FB017108CA
:1006A800080087156830F400E430F300F30B5A2B88
:1006B800F40B5A2B64006830F400E430F300F30BB9
:1006C800632BF40B632B64006830F400E430F30010
:1006D800F30B6C2BF40B6C2B64006830F400E430E3
:1006E800F300F30B752BF40B752B64006830F400E2
:1006F800E430F300F30B7E2BF40B7E2B64006830A0
:10070800F400E430F300F30B872BF40B872B640021
:100718006830F400E430F300F30B902BF40B902BCB
:100728006400831203138711B830F1000B30F20014
:100738009E2308007208B0007108AF00F016080088
:1007480085018601870188018901753083168F002C
:1007580083120317870188011630871388138500D1
:1007680087308316031381008B018C018D010317D9
:1007780089018801031395010B118B168501373008
:100788008600C0308700880189018711831287118C
:10079800850186018701880189010530CD00CF00D8
:1007A8000230CE0008000A128A11A4230A128A1104
:1007B8000A128A111F240A128A110B178B178B171A
:1007C8000A128A114F240A128A11B830BE000B305F
:1007D800BF000A128A1167220A128A1164000A12DB
:1007E8008A1115210A128A110A128A1111200A1275
:1007F8008A11F22B2030F001F901FA01FB01FC010A
:10080800831384003E300A128A1147240A128A117F
:10081800A0308400DC300A128A1147240A128A1197
:10082800903083178400CC300A128A114724830140
:100838000A128A11D72B831607178717181103175F
:100848003330871503139900181283129817181656
:1008580083169816181383121813981183168C167A
:100868000C12080004308A000408840A8207003445
:10087800503455344C3453344534003452344F34A6
:100888004C344534003464008001840A040603199A
:1008980000340406482C83120608FA003730FA059B
:0208A800080046
:02400E002CE0A4
:00000001FF
