:060000000A128A110E280D
:10000800FE00030EF4000408F5000A08F6000A12C0
:100018008A11C9290A128A114A2B0A128A11B8228E
:100028000A128A110A128A116D230A128A110B17F1
:100038008B178B178312AA01A9010608A60037306F
:10004800A605B8308312B5000B30B6000A128A1123
:10005800B6230A128A11640083120313060837397B
:1000680026060319B2286830BB00E430BA00BA0B80
:100078003B28BB0B3B28640083120313060837395F
:1000880026060319B2280608A6003730A6053C3014
:100098000A128A11A1230A128A1144300A128A11FB
:1000A800A1230A128A1155300A128A11A1230A12B1
:1000B8008A1152300A128A11A1230A128A11553064
:1000C8000A128A11A1230A128A114D300A128A11C2
:1000D800A1230A128A113A300A128A11A1230A129C
:1000E8008A1106080139303E0A128A11A1230A1220
:1000F8008A11060C0139303E0A128A11A1230A120C
:100108008A11060CBA003A0C0139303E0A128A11DB
:10011800A1230A128A11060E0139303E0A128A11E9
:10012800A1230A128A11060EBA003A0C0139303E90
:100138000A128A11A1230A128A1130300A128A116E
:10014800A1230A128A113E300A128A11A1230A1227
:100158008A110A128A11BC230A128A1183122A08E8
:10016800290603192F280A128A1184230A128A11D0
:10017800A500400BC52825083C3A031D2F2802304E
:10018800C7294008023A031DD2282508523A031D00
:10019800CF280330C729C001C00A2F284008033AD6
:1001A800031DDC2825084F3A031DCF280430C72932
:1001B8004008043A031DE62825084C3A031DCF28B9
:1001C8000530C7294008053A031DF0282508453A97
:1001D800031DCF280630C7294008063A031DFA2810
:1001E80025083A3A031DCF280730C7294008073A9F
:1001F800031D2C292508AB00BC010330BB00973038
:10020800BA00BA0B0529BB0B05290A290A128A115B
:1002180084230A128A11BA003C082C3E84003A084A
:10022800831380003C082C3E840000083C3A0319E4
:10023800C3283C082C3E840000083E3A0319CF2806
:100248000830C0000530BC0A3C0203182F280129D9
:100258004008083A031D2F2825083E3A031DC629E1
:10026800BC013C082B3E840083130008413A031D5F
:100278004629B501B50A3C0A0A128A11EB220A126C
:100288008A119F293C082B3E840000084B3A031D25
:100298005529B5013C0A0A128A11EB220A128A1161
:1002A8009F293C082B3E84000008303A031D5E2934
:1002B800323098293C082B3E84000008D03EBA0012
:1002C800FF3003180030BB00803AFF0080307F0207
:1002D800031D702901303A02031C9F29831203135E
:1002E8003C082B3E840083130008D03EBA00FF3040
:1002F80003180030BB00803AFF0080307F02031DE6
:1003080087290A303A0203189F29053083120313FC
:10031800B5003C082B3E840083130008D03E0A1227
:100328008A1193230A128A11B8003C0A0A128A1108
:100338001D230A128A11831203130630BC0A3C02D9
:10034800031C35293C300A128A11A1230A128A118A
:100358004F300A128A11A1230A128A114B300A124D
:100368008A11A1230A128A113E300A128A11A12386
:100378000A128A11C001C00A0A128A11BC230A1281
:100388008A1125280830C0002F288B1A0B1D102A27
:10039800BE30831203138100BD0B0E2A0C30BD0042
:1003A800F90BDA29781CDA2988107810FA0BE02979
:1003B800F81CE0290811F810A20BE629781DE62997
:1003C80088117811A30BEC29F81DEC290712F811F4
:1003D800A40BF229781EF229871278120130A002A4
:1003E8000030031CA103A102210820040319F81EF0
:1003F800042A69220A128A11B830A0000B30A10021
:10040800BF0B0E2A0530BF00BE0B0E2A0230BE00FD
:10041800013088060B113D2A831603138C1E292AE6
:1004280083128C1E292A981C1B2A181218161819B0
:100438001A088C1A232A46220A128A111D2A1A0817
:10044800F7004F220A128A113D2A83160C1E3D2AF4
:1004580083120C1E3D2A7B087C060319392A5C226C
:100468000A128A11F70099003D2A83160C1283128A
:100478000C1276088A0075088400740E8300FE0E3C
:100488007E0E090083120313981C4C2A18121816A2
:1004980018191A080800F0002A08903E840070080D
:1004A80083178000AA0A2A085A3A0319AA010800E1
:1004B8007B08A03E840083130008F000FB0A7B0839
:1004C8003C3A0319FB017008080087156830F300EF
:1004D800E430F200F20B6E2AF30B6E2A64006830E7
:1004E800F300E430F200F20B772AF30B772A64006A
:1004F8006830F300E430F200F20B802AF30B802A14
:1005080064006830F300E430F200F20B892AF30B40
:10051800892A64006830F300E430F200F20B922A72
:10052800F30B922A64006830F300E430F200F20B17
:100538009B2AF30B9B2A64006830F300E430F20036
:10054800F20BA42AF30BA42A640083120313871165
:10055800B830F0000B30F100B22208007108A10099
:100568007008A000F8160800850186018701880137
:100578008901753083168F0083120317870188015C
:10058800163087138813850087308316031381007C
:100598008B018C018D0103178901880103139501D3
:1005A8000B118B16850137308600C0308700880113
:1005B80089018711831287118501860187018801C6
:1005C80089010530BD00BF000230BE000800B6003A
:1005D8000B2B3508031D88140319881008003508EB
:1005E800031D08150319081108003508031D88158F
:1005F8000319881108003508031D07160319071287
:1006080008003508031D87160319871208003608E5
:10061800013A0319ED2A033A0319F32A013A031997
:10062800F92A073A0319FF2A013A0319052B1C2B4B
:100638000800B900382B88143808F9007814080025
:1006480008153808FA00F814080088153808A200B8
:100658007815080007163808A300F815080087164B
:100668003808A400781608003908013A03191F2B26
:10067800033A0319242B013A0319292B073A0319C2
:100688002E2B013A0319332B492B08002030F8018F
:10069800F901FA01FB01FC018313840035300A12C9
:1006A8008A11AE230A128A11A0308400DC300A12A3
:1006B8008A11AE230A128A11903083178400EA3017
:1006C8000A128A11AE230130C00083010A128A116E
:1006D8001128831607178717181103173330871542
:1006E8000313990018128312981718168316981670
:1006F800181383121813981183168C160C120800FD
:10070800831203132908903E840083170008B5005C
:10071800A90A29085A3A0319A90135080800B70097
:10072800B60135083718B6070310B50D0310B70C16
:10073800B708031D952B36080800B5007C08A03EB5
:100748008400350883138000FC0A7C083C3A0319AE
:10075800FC01080064008001840A040603190034BF
:100768000406AF2B3608A1003508A000F8160800CB
:080778000C1283160C16080098
:02400E002CE0A4
:10420000310030000000000000000000000000004D
:00000001FF
